:100000000C942A000C943C000C943C000C943C0092
:100010000C943C000C943C000C943C000C943C0070
:100020000C943C000C943C000C943C000C943C0060
:100030000C943C000C943C000C943C000C943C0050
:100040000C943C000C943C000C943C000C94560026
:100050000C943C0011241FBECFE5D4E0DEBFCDBF21
:1000600020E0A0E6B0E001C01D92A136B207E1F7A2
:100070000E9465000C946A000C94000088E083BF25
:1000800083B7856083BF12BE809160008F5F8093CD
:100090006000809160008A3020F087E28CBF10926F
:1000A000600089B7826089BF789408951F920F928B
:1000B0000FB60F9211248F9388B3809588BB8F91D0
:1000C0000F900FBE0F901F9018958FEF87BB0E9467
:0800D0003E00FFCFF894FFCFC2
:00000001FF
