:100000000C942A000C943C000C943C000C943C0092
:100010000C943C000C943C000C943C000C943C0070
:100020000C943C000C943C000C943C000C943E005E
:100030000C943C000C943C000C943C000C943C0050
:100040000C943C000C943C000C943C000C943C0040
:100050000C943C0011241FBECFE5D8E0DEBFCDBF1D
:1000600020E0A0E6B0E001C01D92A236B207E1F7A1
:100070000E9461000C9471000C9400001F920F927A
:100080000FB60F9211248F939F9388ED82BF8091BA
:1000900060009091610001969093610080936000F0
:1000A0008436910539F488B3809588BB109261003D
:1000B000109260009F918F910F900FBE0F901F9034
:1000C00018958FEF87BB88BB82BB88ED82BF83B753
:1000D000856083BF89B7816089BF83E085BF7894DD
:0600E000FFCFF894FFCFF2
:00000001FF
