:100000000C942A000C9434000C9434000C943400AA
:100010000C9434000C9434000C9434000C94340090
:100020000C9434000C9434000C9434000C9436007E
:100030000C9434000C9434000C9434000C94340070
:100040000C9434000C9434000C9434000C94340060
:100050000C94340011241FBECFE5D8E0DEBFCDBF25
:100060000E944B000C9455000C9400001F920F92BC
:100070000FB60F9211248F9388B3809588BB12BE60
:100080008F910F900FBE0F901F90189583B78560CA
:1000900083BF12BE089583E087BB88BB0E944600E1
:0E00A00082B7803FE8F37894FBCFF894FFCF4F
:00000001FF
