:100000000C942A000C9434000C9434000C943400AA
:100010000C9434000C9434000C9434000C94340090
:100020000C9434000C9434000C9434000C94340080
:100030000C9434000C9434000C9434000C94340070
:100040000C9434000C9434000C9434000C94340060
:100050000C94340011241FBECFE5D4E0DEBFCDBF29
:100060000E9436000C949A000C9400008FEF87BB1E
:1000700071E063E057E04FE03FE12FE39FE778BB9B
:10008000AFEFE9E6F8E1A150E040F040E1F700C051
:10009000000068BBAFEFE9E6F8E1A150E040F040B6
:1000A000E1F700C0000058BBAFEFE9E6F8E1A1506E
:1000B000E040F040E1F700C0000048BBAFEFE9E6E8
:1000C000F8E1A150E040F040E1F700C0000038BB8B
:1000D000AFEFE9E6F8E1A150E040F040E1F700C001
:1000E000000028BBAFEFE9E6F8E1A150E040F040A6
:1000F000E1F700C0000098BBAFEFE9E6F8E1A150DE
:10010000E040F040E1F700C0000088BBAFEFE9E657
:10011000F8E1A150E040F040E1F700C0000018BA5B
:10012000AFEFE9E6F8E1A150E040F040E1F700C0B0
:080130000000A5CFF894FFCFF9
:00000001FF
