:100000000C942A000C9434000C9434000C943400AA
:100010000C9434000C9434000C9434000C94340090
:100020000C9434000C9434000C9434000C94340080
:100030000C9434000C9434000C9434000C94340070
:100040000C9434000C9434000C9434000C94340060
:100050000C94340011241FBECFE5D4E0DEBFCDBF29
:100060000E9436000C9475000C9400008FEF87BB43
:1000700061E070E080E090E048B39B01082E01C091
:10008000220F0A94EAF7242B28BB2FEF34E34CE02D
:10009000215030404040E1F700C000000196893017
:1000A000910551F789E090E038B3AB01082E01C00B
:1000B000440F0A94EAF7242F2095232328BB2FEF1F
:1000C00039E648E1215030404040E1F700C00000EF
:1000D000019751F718BA8FEF94E32CE081509040CC
:0E00E0002040E1F700C00000C5CFF894FFCF2C
:00000001FF
