:100000000C942A000C9434000C9434000C943400AA
:100010000C9434000C9434000C9434000C94340090
:100020000C9434000C9434000C9434000C94340080
:100030000C9434000C9434000C9434000C94340070
:100040000C9434000C9434000C9434000C94340060
:100050000C94340011241FBECFE5D4E0DEBFCDBF29
:100060000E9436000C9443000C9400008FEF8ABB72
:1000700014BA92E080EF2FE095BB999902C02BBB98
:0A008000FBCF8BBBF9CFF894FFCF44
:00000001FF
