:100000000C942A000C9434000C9434000C943400AA
:100010000C9434000C9434000C9434000C94340090
:100020000C9434000C9434000C9434000C94340080
:100030000C9434000C9434000C9434000C94340070
:100040000C9434000C9434000C9434000C94340060
:100050000C94340011241FBECFE5D4E0DEBFCDBF29
:100060000E943F000C944F000C9400008DE08EBD68
:100070001DBC1CBC84E89EE199BD88BD08958FEF2E
:1000800087BB0E94360008B603FEFDCF1DBC1CBC1A
:1000900088B3809588BB88B7886088BFF4CFF89410
:0200A000FFCF90
:00000001FF
