:100000000C942A000C9434000C9434000C943400AA
:100010000C9434000C9434000C9434000C9436008E
:100020000C9434000C9434000C9434000C94340080
:100030000C9434000C9434000C9434000C94340070
:100040000C9434000C9434000C9434000C94340060
:100050000C94340011241FBECFE5D4E0DEBFCDBF29
:100060000E945E000C9463000C9400001F920F929B
:100070000FB60F9211248F939F9382E49FE099BD56
:1000800088BD88B3809588BB1DBC1CBC9F918F9197
:100090000F900FBE0F901F9018958EB588608EBD83
:1000A0008EB585608EBD1DBC1CBC82E49FE099BDF1
:1000B00088BD89B7886089BF789408958FEF87BB22
:0A00C0000E944D00FFCFF894FFCF1F
:00000001FF
