:100000000C942A000C943C000C943C000C943C0092
:100010000C943C000C943C000C943C000C943C0070
:100020000C944A000C943C000C943C000C943C0052
:100030000C943C000C943C000C943C000C943C0050
:100040000C943C000C943C000C943C000C943C0040
:100050000C943C0011241FBECFE5D4E0DEBFCDBF21
:1000600020E0A0E6B0E001C01D92A436B207E1F79F
:100070000E94AF000C94B5000C9400008EB5856012
:100080008EBD8AEE9FEF9DBD8CBD89B7846089BF10
:10009000789408951F920F920FB60F9211242F9308
:1000A0003F934F935F938F939F9389EE9FEF9DBDF7
:1000B0008CBD8091620090916300019690936300E3
:1000C00080936200449709F03FC020916000309116
:1000D0006100273031050CF581E090E0AC0102C0F1
:1000E000440F551F2A95E2F79A01209528BB0090EE
:1000F000600002C0880F991F0A94E2F782BB109239
:1001000063001092620080916000909161000196FE
:10011000909361008093600017C027303105A1F4EF
:1001200080E888BB81E090E00090600002C0880F0A
:10013000991F0A94E2F782BB10926300109262004A
:1001400010926100109260009F918F915F914F918A
:100150003F912F910F900FBE0F901F9018958FEF2A
:0E01600087BB81BB0E943E00FFCFF894FFCF0B
:00000001FF
