:100000000C942A000C943F000C943F000C943F0089
:100010000C943F000C943F000C943F000C943F0064
:100020000C943F000C943F000C943F000C943F0054
:100030000C943F000C943F000C943F000C943F0044
:100040000C943F000C943F000C943F000C943F0034
:100050000C943F0011241FBECFE5D4E0DEBFCDBF1E
:1000600010E0A0E6B0E0E6E2F1E002C005900D92FB
:10007000AC38B107D9F70E945F000C9491000C9442
:1000800000008AB188618AB980B5866080BD83E34B
:1000900089B910BC08955D9BFECF8CB908955F9B14
:1000A000FECF8CB10895CF93DF93EC018991882323
:1000B00019F00E944B00FACFDF91CF910895CF93B2
:1000C000DF93CDB7DEB72A970FB6F894DEBF0FBE29
:1000D000CDBF80E895E20E94410080E690E00E945A
:1000E00053006E018BE0C80ED11C8E010F5F1F4FB5
:1000F00078010E944F00F70181937F01EC15FD0507
:10010000C1F783E790E00E945300F80181918F01CD
:100110000E944B000C151D05C1F78AE00E944B00A0
:06012000E4CFF894FFCFCC
:100126000A70726F6772616D696E675F6775727567
:100136003A20000A72656369766564203130206270
:0C01460079746572206973203A20000073
:00000001FF
