:100000000C942A000C9434000C9434000C943400AA
:100010000C9434000C9434000C9434000C94340090
:100020000C9434000C9434000C9434000C94340080
:100030000C9434000C9434000C9434000C94340070
:100040000C9434000C9434000C9434000C94340060
:100050000C94340011241FBECFE5D4E0DEBFCDBF29
:100060000E945B000C948C000C9400008AB18861A3
:100070008AB980B5866080BD83E389B910BC0895D4
:100080005D9BFECF8CB908955F9BFECF8CB1089528
:100090000F931F93CF938C01C0E0F801EC0FF11D7B
:1000A0008081882321F00E944000CF5FF6CFCF915E
:1000B0001F910F910895CF93DF9300D0CDB7DEB796
:1000C0008FEF87BB80E895E20E9436007E0183E0D7
:1000D000E80EF11CDD24DA940E94440089830E941A
:1000E00044008A838E010F5F1F4FF80181918F01B9
:1000F0000E9440008AE00E94400089818F3641F4CE
:100100008A818E3611F4D8BA03C0863609F418BA3B
:0C0110000E151F0551F7E0CFF894FFCF4B
:00000001FF
