:100000000C942A000C9434000C9434000C943400AA
:100010000C9434000C9434000C9434000C94340090
:100020000C9434000C9434000C9434000C94340080
:100030000C9434000C9434000C9434000C94340070
:100040000C9434000C9434000C9434000C94340060
:100050000C94340011241FBECFE5D4E0DEBFCDBF29
:100060000E9444000C9467000C9400008AB18861DF
:100070008AB980B5866080BD83E389B910BC0895D4
:100080005D9BFECF8CB9089580E895E20E94360012
:100090008DE40E94400085E40E94400088E40E94B4
:1000A000400085E50E9440008CE40E9440008AE008
:1000B0000E9440008AE00E9440002FEF89E698E10C
:1000C000215080409040E1F700C00000E1CFF8945B
:0200D000FFCF60
:00000001FF
