:100000000C942A000C943F000C943F000C943F0089
:100010000C943F000C943F000C943F000C943F0064
:100020000C943F000C943F000C943F000C943F0054
:100030000C943F000C943F000C943F000C943F0044
:100040000C943F000C943F000C943F000C943F0034
:100050000C943F0011241FBECFE5D4E0DEBFCDBF1E
:1000600010E0A0E6B0E0EEE7F1E002C005900D92EE
:10007000A636B107D9F70E947F000C94BD000C94FE
:1000800000002AB128612AB920B5266820BD9B014D
:10009000AC0184E0220F331F441F551F8A95D1F70E
:1000A00060E072E18AE790E00E949B008FEF820F90
:1000B00089B9DA01C9010197A109B109892F9A2FDC
:1000C000AB2FBB2780BD08955F9BFECF8CB10895F9
:1000D0005D9BFECF8CB908950F931F93CF938C0136
:1000E000C0E0F801EC0FF11D8081882321F00E940F
:1000F0006800CF5FF6CFCF911F910F91089560E810
:1001000075E280E090E00E9441008FEF87BB80E6BF
:1001100090E00E946C00D5E51FEF0E946400C82F9C
:100120000E9468008AE00E946800C43711F418BB7E
:10013000F4CFD8BBF2CFA1E21A2EAA1BBB1BFD0144
:100140000DC0AA1FBB1FEE1FFF1FA217B307E407B6
:10015000F50720F0A21BB30BE40BF50B661F771F0E
:10016000881F991F1A9469F76095709580959095EE
:0E0170009B01AC01BD01CF010895F894FFCFB3
:06017E00546573740000DB
:00000001FF
