:100000000C942A000C9452000C9436000C9434008A
:100010000C9434000C9434000C9434000C94340090
:100020000C9434000C9434000C9434000C94340080
:100030000C9434000C9434000C9434000C94340070
:100040000C9434000C9434000C9434000C94340060
:100050000C94340011241FBECFE5D8E0DEBFCDBF25
:100060000E946E000C947A000C9400001F920F9274
:100070000FB60F9211242F938F939F9383E088BB29
:100080002FEF89E698E1215080409040E1F700C0D1
:10009000000018BA9F918F912F910F900FBE0F9073
:1000A0001F9018951F920F920FB60F9211242F9345
:1000B0008F939F938FE088BB2FEF89E698E12150C3
:1000C00080409040E1F700C0000018BA9F918F91E6
:1000D0002F910F900FBE0F901F9018958FEF87BB39
:1000E00082BBF8948BB7806C8BBF85B78F6085BF60
:0800F0007894FFCFF894FFCFD4
:00000001FF
